S00F0000437574655254412E737265639D
S113000012C02CC02BC02AC029C028C027C026C0BB
S113001025C024C023C022C021C020C01FC01EC0D0
S11300201DC01CC01BC011241FBECFE5D4E0DEBF21
S1130030CDBF13E0A0E6B0E0ECE3F3E002C005902E
S11300400D92A835B107D9F723E0A8E5B3E001C0C4
S11300501D92AF35B207E1F7F3D06EC1D1CF66235D
S113006011F0969A01C09698882314F4939A01C0CB
S1130070939886FF02C0929A01C0929885FF02C0AD
S1130080919A01C0919884FF02C0909A01C09098FF
S11300900000959A00C000C0959883FF02C0939A0F
S11300A001C0939882FF02C0929A01C0929881FF86
S11300B002C0919A01C0919880FF02C0909A01C039
S11300C090980000959A00C000C09598939A929ACF
S11300D0919A909A611109C0843038F48FEC9CE0B5
S11300E00197F1F700C0000008959AE69A95F1F798
S11300F000C0089560E0B3DF089581E0FBDF089558
S113010061E0ADDF0895CF93DF93EC012196FC010C
S11301108081882321F0F4DF89918111FCCFDF9164
S1130120CF9108958D9A8E9A8B9A8A9A899A889AF1
S113013095989698939A929A919A909A8FE295E7C5
S11301400197F1F700C00000939892980000959AE7
S113015000C000C0959887E090E20197F1F700C0D5
S11301600000959A00C000C0959887EC90E0019734
S1130170F1F700C00000959A00C000C095989AE677
S11301809A95F1F700C090980000959A00C000C0BD
S113019095988AE68A95F1F700C090980000959AA0
S11301A000C000C0959800C000C0939A0000959AC2
S11301B000C000C095989AE69A95F1F700C088E0CF
S11301C099DF9BDF86E096DF8CE094DF08959B0146
S11301D0220F331F620F731FB99A28B32D7F38B3D0
S11301E032604FB7F8946115710509F421C0FC0120
S11301F0680F791F919188E038BB97FF28BB990F4E
S1130200000000C028BB000000C000C000C000C047
S113021000C000C000C000C000C000C000C000C0DA
S113022000C000C000C08A9539F7E617F70711F738
S11302304FBF87E592E00197F1F700C000000895F1
S11302408FEF84BB87BB81BB6DDF57DF0F2EFCE8CC
S1130250CF2EF1E0DF2EF02D08E513E0A02EB12E15
S1130260C0E6D0E00F2EFAE9EF2EF2E0FF2EF02DDB
S11302708A81F8018183888180838C81828361E013
S113028070E08A2D9B2DA3DF38DF4AE050E06BE558
S113029073E0F701819191917F0111D08BE593E097
S11302A032DFFFEF26E181E1F15020408040E1F7A9
S11302B000C000002696CC15DD05D1F6D1CF45321D
S11302C0510518F4423008F004C0FB011082CB0140
S11302D00895BB274A3031F4992322F4BDE2909566
S11302E081959F4F01C0BB27FB015527AA27880F83
S11302F0991FAA1FA41710F0A41B83955051B9F796
S1130300A05DAA3308F0A95DA193009779F7B11114
S1130310B1931192CB0100C0DC01FC01672F7191F4
S11303207723E1F7329704C07C916D9370836291D7
S10F0330AE17BF07C8F30895F894FFCF80
S113033C0A00000000000A00000000000A0000008F
S113034C00000A00000000000A00000000000A007F
S113035C000000000A00000000000A000000000079
S113036C0A00000000000A00000000000A0000005F
S113037C00000A00000000000A00000000000A004F
S113038C000000000A00000000000A000000000049
S113039C3700000000006B00000000009A00000011
S11303AC0000CA0000000000F90000000000FF007B
S11303BC29000000FF0059000000FF008D00000020
S11303CCFF00BA000000FF00E9000000FF00FF007E
S11303DC2A00FF00FF006D00FF00FF00B800FF00C3
S11303ECFF00FF00FF00FF00FF00FF00FF00FF0005
S11303FCFF00FF00FF00FF00FF00FF00FF00FF00F5
S113040CFF00FF00FF00FF00FF00FF00FF00FF00E4
S113041CFF00FF00FF00FF00FF00FF00FF00FF00D4
S113042CFF00FF00FF00FF00FF00FF00FF00FF00C4
S113043CFF00FF00FF00FF00FF00FF00FF00FF00B4
S113044CFF00FF00FF00FF00FF00FF00FF00FF00A4
S113045CFF00FF00FF00FF00FF00FF00FF00FF0094
S113046CFF00FF00FF00FF00FF00FF00FF00FF0084
S113047CFF00FF00FF00FF00FF00FF00FF00FF0074
S113048CFF00FF00FF00FF00FF00FF00FF00FF0064
S113049CFF00FF00FF00FF00FF00FF00FF00FF0054
S11304ACFF000200FF0080000000FF001F0000009E
S11304BCD70000000000A200000000007E00000035
S11304CC0000610000000000490000000000390039
S11304DC000000002A0000000000220000000000C0
S11304EC1F000000000017000000000015000000B1
S11304FC00001200000000000F00000000000F00BC
S113050C000000000D00000000000D0000000000C1
S113051C0A00000000000A00000000000A000000AD
S113052C00000A00000000000A00000000000A009D
S113053C000000000A00000000000A000000000097
S113054C0A00000000000A00000000000A0000007D
S113055C00000A00000000000A00000000000A006D
S113056C000000000A0000000000240125012701FE
S113057C2401240124012301250125012501250140
S113058C2401230124012401250155018B01BE0101
S113059CEF01220254028502BB02EB021D0351033C
S11305AC8103B503E803E703E803E603E703E50384
S11305BCE703E703E803E703E603E703E903E803D8
S11305CCE803E803E503E803E703E803E703E803C8
S11305DCE603E803E703E903E803E603E703E703B9
S11305ECE703EA033403AE024902FE01C6019F018C
S11305FC81016801560148013F013B01340131017D
S113060C2E012A012B01280129012701260126018B
S113061C2501240124012601260125012601250199
S10B062C24012401260123012D
S9030000FC
